{
  "contractName": "MajorProject",
  "abi": [
    {
      "constant": true,
      "inputs": [
        {
          "internalType": "address",
          "name": "",
          "type": "address"
        },
        {
          "internalType": "uint256",
          "name": "",
          "type": "uint256"
        }
      ],
      "name": "DiabetesData",
      "outputs": [
        {
          "internalType": "string",
          "name": "recordId",
          "type": "string"
        },
        {
          "internalType": "string",
          "name": "recordHash",
          "type": "string"
        }
      ],
      "payable": false,
      "stateMutability": "view",
      "type": "function"
    },
    {
      "constant": true,
      "inputs": [
        {
          "internalType": "address",
          "name": "",
          "type": "address"
        },
        {
          "internalType": "uint256",
          "name": "",
          "type": "uint256"
        }
      ],
      "name": "HeartData",
      "outputs": [
        {
          "internalType": "string",
          "name": "recordId",
          "type": "string"
        },
        {
          "internalType": "string",
          "name": "recordHash",
          "type": "string"
        }
      ],
      "payable": false,
      "stateMutability": "view",
      "type": "function"
    },
    {
      "constant": false,
      "inputs": [
        {
          "internalType": "address",
          "name": "publicAddress",
          "type": "address"
        },
        {
          "internalType": "string",
          "name": "_recordId",
          "type": "string"
        },
        {
          "internalType": "string",
          "name": "_recordHash",
          "type": "string"
        }
      ],
      "name": "setPatientDiabetesData",
      "outputs": [],
      "payable": false,
      "stateMutability": "nonpayable",
      "type": "function"
    },
    {
      "constant": true,
      "inputs": [
        {
          "internalType": "address",
          "name": "pa",
          "type": "address"
        }
      ],
      "name": "getDiabetesData",
      "outputs": [
        {
          "components": [
            {
              "internalType": "string",
              "name": "recordId",
              "type": "string"
            },
            {
              "internalType": "string",
              "name": "recordHash",
              "type": "string"
            }
          ],
          "internalType": "struct MajorProject.PatientHealthData[]",
          "name": "",
          "type": "tuple[]"
        }
      ],
      "payable": false,
      "stateMutability": "view",
      "type": "function"
    },
    {
      "constant": false,
      "inputs": [
        {
          "internalType": "address",
          "name": "publicAddress",
          "type": "address"
        },
        {
          "internalType": "string",
          "name": "_recordId",
          "type": "string"
        },
        {
          "internalType": "string",
          "name": "_recordHash",
          "type": "string"
        }
      ],
      "name": "setPatientHeartData",
      "outputs": [],
      "payable": false,
      "stateMutability": "nonpayable",
      "type": "function"
    },
    {
      "constant": true,
      "inputs": [
        {
          "internalType": "address",
          "name": "pa",
          "type": "address"
        }
      ],
      "name": "getHeartData",
      "outputs": [
        {
          "components": [
            {
              "internalType": "string",
              "name": "recordId",
              "type": "string"
            },
            {
              "internalType": "string",
              "name": "recordHash",
              "type": "string"
            }
          ],
          "internalType": "struct MajorProject.PatientHealthData[]",
          "name": "",
          "type": "tuple[]"
        }
      ],
      "payable": false,
      "stateMutability": "view",
      "type": "function"
    }
  ],
  "bytecode": "0x608060405234801561001057600080fd5b50610d13806100206000396000f3fe608060405234801561001057600080fd5b50600436106100625760003560e01c80630a72c6bc14610067578063118bbcf61461009157806318fd0683146100b15780634e267a38146100c457806372fc3b3c146100d9578063cd98e331146100ec575b600080fd5b61007a610075366004610a9a565b6100ff565b604051610088929190610bd9565b60405180910390f35b6100a461009f3660046109f7565b610256565b6040516100889190610bc8565b6100a46100bf3660046109f7565b6103f7565b6100d76100d2366004610a1d565b61058d565b005b61007a6100e7366004610a9a565b610671565b6100d76100fa366004610a1d565b61068a565b6003602052816000526040600020818154811061011857fe5b60009182526020918290206002918202018054604080516001831615610100026000190190921693909304601f8101859004850282018501909352828152909450925083918301828280156101ae5780601f10610183576101008083540402835291602001916101ae565b820191906000526020600020905b81548152906001019060200180831161019157829003601f168201915b505050505090806001018054600181600116156101000203166002900480601f01602080910402602001604051908101604052809291908181526020018280546001816001161561010002031660029004801561024c5780601f106102215761010080835404028352916020019161024c565b820191906000526020600020905b81548152906001019060200180831161022f57829003601f168201915b5050505050905082565b6001600160a01b0381166000908152600360209081526040808320805482518185028101850190935280835260609492939192909184015b828210156103ec5760008481526020908190206040805160028681029093018054600181161561010002600019011693909304601f8101859004909402810160609081018352918101848152909384928491908401828280156103325780601f1061030757610100808354040283529160200191610332565b820191906000526020600020905b81548152906001019060200180831161031557829003601f168201915b50505050508152602001600182018054600181600116156101000203166002900480601f0160208091040260200160405190810160405280929190818152602001828054600181600116156101000203166002900480156103d45780601f106103a9576101008083540402835291602001916103d4565b820191906000526020600020905b8154815290600101906020018083116103b757829003601f168201915b5050505050815250508152602001906001019061028e565b505050509050919050565b6001600160a01b0381166000908152600460209081526040808320805482518185028101850190935280835260609492939192909184015b828210156103ec5760008481526020908190206040805160028681029093018054600181161561010002600019011693909304601f8101859004909402810160609081018352918101848152909384928491908401828280156104d35780601f106104a8576101008083540402835291602001916104d3565b820191906000526020600020905b8154815290600101906020018083116104b657829003601f168201915b50505050508152602001600182018054600181600116156101000203166002900480601f0160208091040260200160405190810160405280929190818152602001828054600181600116156101000203166002900480156105755780601f1061054a57610100808354040283529160200191610575565b820191906000526020600020905b81548152906001019060200180831161055857829003601f168201915b5050505050815250508152602001906001019061042f565b600280546001600160a01b0319166001600160a01b038516908117909155600090815260046020526040902080546105c791600191610760565b50604080518082019091528281526020808201839052600180548082018083556000929092528351805192949360029092027fb10e2d527612073b26eecdfd717e6a320cf44b4afac2b0732d9fcbe2b7fa0cf601926106299284920190610803565b5060208281015180516106429260018501920190610803565b5050506001600160a01b03841660009081526004602052604090206001805461066b9350610760565b50505050565b6004602052816000526040600020818154811061011857fe5b600280546001600160a01b0319166001600160a01b038516908117909155600090815260036020526040812080546106c3929190610760565b5060408051808201909152828152602080820183905260008054600181018083559180528351805192949360029092027f290decd9548b62a8d60345a988386fc84ba6bc95484008f6362f93160ef3e56301926107239284920190610803565b50602082810151805161073c9260018501920190610803565b505050506001600160a01b0383166000908152600360205260408120815461066b92905b8280548282559060005260206000209060020281019282156107f35760005260206000209160020282015b828111156107f3578254839083906107b990829084906002600019610100600184161502019091160461087d565b50600182018160010190805460018160011615610100020316600290046107e192919061087d565b5050509160020191906002019061078b565b506107ff9291506108f2565b5090565b828054600181600116156101000203166002900490600052602060002090601f016020900481019282601f1061084457805160ff1916838001178555610871565b82800160010185558215610871579182015b82811115610871578251825591602001919060010190610856565b506107ff929150610926565b828054600181600116156101000203166002900490600052602060002090601f016020900481019282601f106108b65780548555610871565b8280016001018555821561087157600052602060002091601f016020900482015b828111156108715782548255916001019190600101906108d7565b61092391905b808211156107ff57600061090c8282610940565b61091a600183016000610940565b506002016108f8565b90565b61092391905b808211156107ff576000815560010161092c565b50805460018160011615610100020316600290046000825580601f106109665750610984565b601f0160209004906000526020600020908101906109849190610926565b50565b803561099281610cb3565b92915050565b600082601f8301126109a957600080fd5b81356109bc6109b782610c25565b610bfe565b915080825260208301602083018583830111156109d857600080fd5b6109e3838284610c71565b50505092915050565b803561099281610cc7565b600060208284031215610a0957600080fd5b6000610a158484610987565b949350505050565b600080600060608486031215610a3257600080fd5b6000610a3e8686610987565b935050602084013567ffffffffffffffff811115610a5b57600080fd5b610a6786828701610998565b925050604084013567ffffffffffffffff811115610a8457600080fd5b610a9086828701610998565b9150509250925092565b60008060408385031215610aad57600080fd5b6000610ab98585610987565b9250506020610aca858286016109ec565b9150509250929050565b6000610ae08383610b8d565b9392505050565b6000610af282610c53565b610afc8185610c57565b935083602082028501610b0e85610c4d565b8060005b85811015610b485784840389528151610b2b8582610ad4565b9450610b3683610c4d565b60209a909a0199925050600101610b12565b5091979650505050505050565b6000610b6082610c53565b610b6a8185610c57565b9350610b7a818560208601610c7d565b610b8381610ca9565b9093019392505050565b8051604080845260009190840190610ba58282610b55565b91505060208301518482036020860152610bbf8282610b55565b95945050505050565b60208082528101610ae08184610ae7565b60408082528101610bea8185610b55565b90508181036020830152610a158184610b55565b60405181810167ffffffffffffffff81118282101715610c1d57600080fd5b604052919050565b600067ffffffffffffffff821115610c3c57600080fd5b506020601f91909101601f19160190565b60200190565b5190565b90815260200190565b60006001600160a01b038216610992565b82818337506000910152565b60005b83811015610c98578181015183820152602001610c80565b8381111561066b5750506000910152565b601f01601f191690565b610cbc81610c60565b811461098457600080fd5b610cbc8161092356fea365627a7a72315820a25a267bd1f8affccbc769b179ab2a4d851e88cdebb31e9fb9b24320bc7899286c6578706572696d656e74616cf564736f6c63430005100040",
  "source": "// SPDX-License-Identifier: MIT\r\npragma solidity >=0.4.22 <0.9.0;\r\npragma experimental ABIEncoderV2;\r\n\r\ncontract MajorProject {\r\n    struct PatientHealthData{\r\n        string recordId;\r\n        string recordHash;\r\n    }\r\n    PatientHealthData[] DiabetesRecords;\r\n    PatientHealthData[] HeartRecords;\r\n\r\n    address patientPublicAddress;\r\n\r\n    mapping(address => PatientHealthData[]) public DiabetesData;\r\n    mapping(address => PatientHealthData[]) public HeartData;\r\n\r\n    function setPatientDiabetesData(\r\n        address publicAddress,\r\n        string memory _recordId,\r\n        string memory _recordHash\r\n    ) public {\r\n        patientPublicAddress = publicAddress;\r\n        DiabetesRecords=DiabetesData[publicAddress];\r\n        DiabetesRecords.push(PatientHealthData(_recordId, _recordHash));\r\n        DiabetesData[publicAddress] = DiabetesRecords;\r\n    }\r\n\r\n    function getDiabetesData(address pa)\r\n        public\r\n        view\r\n        returns (PatientHealthData[] memory)\r\n    {\r\n        return DiabetesData[pa];\r\n    }\r\n\r\n    function setPatientHeartData(\r\n        address publicAddress,\r\n        string memory _recordId,\r\n        string memory _recordHash\r\n    ) public {\r\n        patientPublicAddress = publicAddress;\r\n        HeartRecords=HeartData[publicAddress];\r\n        HeartRecords.push(PatientHealthData(_recordId, _recordHash));\r\n        HeartData[publicAddress] = HeartRecords;\r\n    }\r\n\r\n    function getHeartData(address pa)\r\n        public\r\n        view\r\n        returns (PatientHealthData[] memory)\r\n    {\r\n        return HeartData[pa];\r\n    }\r\n    \r\n}\r\n",
  "sourcePath": "C:\\Users\\nikhi\\OneDrive\\Documents\\Major-Project\\contracts\\MajorProject.sol",
  "compiler": {
    "name": "solc",
    "version": "0.5.16+commit.9c3226ce.Emscripten.clang"
  },
  "schemaVersion": "3.4.6",
  "updatedAt": "2022-06-12T20:22:34.685Z",
  "networkType": "ethereum",
  "devdoc": {
    "methods": {}
  },
  "userdoc": {
    "methods": {}
  }
}