{
  "contractName": "MajorProject",
  "abi": [
    {
      "constant": true,
      "inputs": [
        {
          "internalType": "address",
          "name": "",
          "type": "address"
        },
        {
          "internalType": "uint256",
          "name": "",
          "type": "uint256"
        }
      ],
      "name": "Data",
      "outputs": [
        {
          "internalType": "string",
          "name": "recordId",
          "type": "string"
        },
        {
          "internalType": "string",
          "name": "recordHash",
          "type": "string"
        }
      ],
      "payable": false,
      "stateMutability": "view",
      "type": "function"
    },
    {
      "constant": false,
      "inputs": [
        {
          "internalType": "address",
          "name": "publicAddress",
          "type": "address"
        },
        {
          "internalType": "string",
          "name": "_recordId",
          "type": "string"
        },
        {
          "internalType": "string",
          "name": "_recordHash",
          "type": "string"
        }
      ],
      "name": "setPatientData",
      "outputs": [],
      "payable": false,
      "stateMutability": "nonpayable",
      "type": "function"
    },
    {
      "constant": true,
      "inputs": [
        {
          "internalType": "address",
          "name": "pa",
          "type": "address"
        }
      ],
      "name": "getRecordData",
      "outputs": [
        {
          "components": [
            {
              "internalType": "string",
              "name": "recordId",
              "type": "string"
            },
            {
              "internalType": "string",
              "name": "recordHash",
              "type": "string"
            }
          ],
          "internalType": "struct MajorProject.PatientHealthData[]",
          "name": "",
          "type": "tuple[]"
        }
      ],
      "payable": false,
      "stateMutability": "view",
      "type": "function"
    }
  ],
  "bytecode": "0x608060405234801561001057600080fd5b50610a4f806100206000396000f3fe608060405234801561001057600080fd5b50600436106100415760003560e01c806346269ee514610046578063903a54c514610070578063b3356d3714610085575b600080fd5b6100596100543660046107d6565b6100a5565b604051610067929190610915565b60405180910390f35b61008361007e366004610759565b6101fc565b005b610098610093366004610733565b6102de565b6040516100679190610904565b600260205281600052604060002081815481106100be57fe5b60009182526020918290206002918202018054604080516001831615610100026000190190921693909304601f8101859004850282018501909352828152909450925083918301828280156101545780601f1061012957610100808354040283529160200191610154565b820191906000526020600020905b81548152906001019060200180831161013757829003601f168201915b505050505090806001018054600181600116156101000203166002900480601f0160208091040260200160405190810160405280929190818152602001828054600181600116156101000203166002900480156101f25780601f106101c7576101008083540402835291602001916101f2565b820191906000526020600020905b8154815290600101906020018083116101d557829003601f168201915b5050505050905082565b600180546001600160a01b0319166001600160a01b0385169081179091556000908152600260205260409020546102385761023860008061047f565b60408051808201909152828152602080820183905260008054600181018083559180528351805192949360029092027f290decd9548b62a8d60345a988386fc84ba6bc95484008f6362f93160ef3e563019261029792849201906104a3565b5060208281015180516102b092600185019201906104a3565b505050506001600160a01b038316600090815260026020526040812081546102d89290610521565b50505050565b6001600160a01b0381166000908152600260209081526040808320805482518185028101850190935280835260609492939192909184015b828210156104745760008481526020908190206040805160028681029093018054600181161561010002600019011693909304601f8101859004909402810160609081018352918101848152909384928491908401828280156103ba5780601f1061038f576101008083540402835291602001916103ba565b820191906000526020600020905b81548152906001019060200180831161039d57829003601f168201915b50505050508152602001600182018054600181600116156101000203166002900480601f01602080910402602001604051908101604052809291908181526020018280546001816001161561010002031660029004801561045c5780601f106104315761010080835404028352916020019161045c565b820191906000526020600020905b81548152906001019060200180831161043f57829003601f168201915b50505050508152505081526020019060010190610316565b505050509050919050565b50805460008255600202906000526020600020908101906104a091906105bc565b50565b828054600181600116156101000203166002900490600052602060002090601f016020900481019282601f106104e457805160ff1916838001178555610511565b82800160010185558215610511579182015b828111156105115782518255916020019190600101906104f6565b5061051d9291506105f0565b5090565b8280548282559060005260206000209060020281019282156105b45760005260206000209160020282015b828111156105b45782548390839061057a90829084906002600019610100600184161502019091160461060a565b50600182018160010190805460018160011615610100020316600290046105a292919061060a565b5050509160020191906002019061054c565b5061051d9291505b6105ed91905b8082111561051d5760006105d6828261067f565b6105e460018301600061067f565b506002016105c2565b90565b6105ed91905b8082111561051d57600081556001016105f6565b828054600181600116156101000203166002900490600052602060002090601f016020900481019282601f106106435780548555610511565b8280016001018555821561051157600052602060002091601f016020900482015b82811115610511578254825591600101919060010190610664565b50805460018160011615610100020316600290046000825580601f106106a557506104a0565b601f0160209004906000526020600020908101906104a091906105f0565b80356106ce816109ef565b92915050565b600082601f8301126106e557600080fd5b81356106f86106f382610961565b61093a565b9150808252602083016020830185838301111561071457600080fd5b61071f8382846109ad565b50505092915050565b80356106ce81610a03565b60006020828403121561074557600080fd5b600061075184846106c3565b949350505050565b60008060006060848603121561076e57600080fd5b600061077a86866106c3565b935050602084013567ffffffffffffffff81111561079757600080fd5b6107a3868287016106d4565b925050604084013567ffffffffffffffff8111156107c057600080fd5b6107cc868287016106d4565b9150509250925092565b600080604083850312156107e957600080fd5b60006107f585856106c3565b925050602061080685828601610728565b9150509250929050565b600061081c83836108c9565b9392505050565b600061082e8261098f565b6108388185610993565b93508360208202850161084a85610989565b8060005b8581101561088457848403895281516108678582610810565b945061087283610989565b60209a909a019992505060010161084e565b5091979650505050505050565b600061089c8261098f565b6108a68185610993565b93506108b68185602086016109b9565b6108bf816109e5565b9093019392505050565b80516040808452600091908401906108e18282610891565b915050602083015184820360208601526108fb8282610891565b95945050505050565b6020808252810161081c8184610823565b604080825281016109268185610891565b905081810360208301526107518184610891565b60405181810167ffffffffffffffff8111828210171561095957600080fd5b604052919050565b600067ffffffffffffffff82111561097857600080fd5b506020601f91909101601f19160190565b60200190565b5190565b90815260200190565b60006001600160a01b0382166106ce565b82818337506000910152565b60005b838110156109d45781810151838201526020016109bc565b838111156102d85750506000910152565b601f01601f191690565b6109f88161099c565b81146104a057600080fd5b6109f8816105ed56fea365627a7a72315820dfeb3706e532eaa8397026770f523238db6bda582246626779be3d7e7625a0a26c6578706572696d656e74616cf564736f6c63430005100040",
  "source": "// SPDX-License-Identifier: MIT\r\npragma solidity >=0.4.22 <0.9.0;\r\npragma experimental ABIEncoderV2;\r\n\r\ncontract MajorProject {\r\n        struct PatientHealthData{\r\n        string recordId;\r\n        string recordHash;\r\n    }\r\n    PatientHealthData[] Records;\r\n    address patientPublicAddress;\r\n\r\n    mapping(address=>PatientHealthData[]) public Data;\r\n\r\n    function setPatientData(address publicAddress,string memory _recordId,string memory _recordHash) public {\r\n        // Assigning public address here\r\n      \r\n        patientPublicAddress=publicAddress;\r\n\r\n        //Deletinng the global data when new user is registered\r\n        if(Data[publicAddress].length==0){\r\n            delete Records;\r\n        }\r\n        Records.push(PatientHealthData(_recordId,_recordHash));\r\n        Data[publicAddress]=Records;\r\n    }\r\n\r\n   \r\n    function getRecordData(address pa) view public returns (PatientHealthData[] memory) {\r\n        return Data[pa];\r\n    }\r\n    \r\n}\r\n",
  "sourcePath": "C:\\Users\\nikhi\\OneDrive\\Documents\\Major-Project\\contracts\\MajorProject.sol",
  "compiler": {
    "name": "solc",
    "version": "0.5.16+commit.9c3226ce.Emscripten.clang"
  },
  "schemaVersion": "3.4.6",
  "updatedAt": "2022-05-06T14:36:56.931Z",
  "networkType": "ethereum",
  "devdoc": {
    "methods": {}
  },
  "userdoc": {
    "methods": {}
  }
}