{
  "contractName": "MajorProject",
  "abi": [
    {
      "constant": true,
      "inputs": [
        {
          "internalType": "address",
          "name": "",
          "type": "address"
        },
        {
          "internalType": "uint256",
          "name": "",
          "type": "uint256"
        }
      ],
      "name": "Data",
      "outputs": [
        {
          "internalType": "string",
          "name": "hashs",
          "type": "string"
        },
        {
          "internalType": "string",
          "name": "mongoid",
          "type": "string"
        }
      ],
      "payable": false,
      "stateMutability": "view",
      "type": "function"
    },
    {
      "constant": false,
      "inputs": [
        {
          "internalType": "address",
          "name": "pa",
          "type": "address"
        }
      ],
      "name": "setPublicAddress",
      "outputs": [],
      "payable": false,
      "stateMutability": "nonpayable",
      "type": "function"
    },
    {
      "constant": false,
      "inputs": [
        {
          "internalType": "address",
          "name": "pa",
          "type": "address"
        },
        {
          "internalType": "string",
          "name": "h",
          "type": "string"
        },
        {
          "internalType": "string",
          "name": "m",
          "type": "string"
        }
      ],
      "name": "addNewData",
      "outputs": [],
      "payable": false,
      "stateMutability": "nonpayable",
      "type": "function"
    },
    {
      "constant": true,
      "inputs": [
        {
          "internalType": "address",
          "name": "pa",
          "type": "address"
        }
      ],
      "name": "getData",
      "outputs": [
        {
          "components": [
            {
              "internalType": "string",
              "name": "hashs",
              "type": "string"
            },
            {
              "internalType": "string",
              "name": "mongoid",
              "type": "string"
            }
          ],
          "internalType": "struct MajorProject.mongoData[]",
          "name": "",
          "type": "tuple[]"
        }
      ],
      "payable": false,
      "stateMutability": "view",
      "type": "function"
    },
    {
      "constant": true,
      "inputs": [
        {
          "internalType": "address",
          "name": "pa",
          "type": "address"
        }
      ],
      "name": "has",
      "outputs": [
        {
          "internalType": "bool",
          "name": "",
          "type": "bool"
        }
      ],
      "payable": false,
      "stateMutability": "view",
      "type": "function"
    }
  ],
  "bytecode": "0x608060405234801561001057600080fd5b50610b85806100206000396000f3fe608060405234801561001057600080fd5b50600436106100565760003560e01c806234e8511461005b578063206e6efb1461007057806321887c3d1461008357806338266b22146100ac57806346269ee5146100cc575b600080fd5b61006e610069366004610867565b6100ed565b005b61006e61007e366004610841565b6101ce565b610096610091366004610841565b61023b565b6040516100a39190610a32565b60405180910390f35b6100bf6100ba366004610841565b610298565b6040516100a39190610a21565b6100df6100da3660046108e4565b610439565b6040516100a3929190610a40565b6100f68361023b565b6100ff576101c9565b6001600160a01b03831660009081526003602052604090205461012757610127600080610590565b60408051808201909152828152602080820183905260008054600181018083559180528351805192949360029092027f290decd9548b62a8d60345a988386fc84ba6bc95484008f6362f93160ef3e563019261018692849201906105b1565b50602082810151805161019f92600185019201906105b1565b505050506001600160a01b038316600090815260036020526040812081546101c7929061062f565b505b505050565b6101d78161023b565b156101e157610238565b60028054600181810183556000929092527f405787fa12a823e0f2b7631cc41b3ba8828b3321ca811111fa75cd3aa3bb5ace0180546001600160a01b0384166001600160a01b031991821681179092558254161790555b50565b6000805b60025481101561028d57826001600160a01b03166002828154811061026057fe5b6000918252602090912001546001600160a01b03161415610285576000915050610293565b60010161023f565b50600190505b919050565b6001600160a01b0381166000908152600360209081526040808320805482518185028101850190935280835260609492939192909184015b8282101561042e5760008481526020908190206040805160028681029093018054600181161561010002600019011693909304601f8101859004909402810160609081018352918101848152909384928491908401828280156103745780601f1061034957610100808354040283529160200191610374565b820191906000526020600020905b81548152906001019060200180831161035757829003601f168201915b50505050508152602001600182018054600181600116156101000203166002900480601f0160208091040260200160405190810160405280929190818152602001828054600181600116156101000203166002900480156104165780601f106103eb57610100808354040283529160200191610416565b820191906000526020600020905b8154815290600101906020018083116103f957829003601f168201915b505050505081525050815260200190600101906102d0565b505050509050919050565b6003602052816000526040600020818154811061045257fe5b60009182526020918290206002918202018054604080516001831615610100026000190190921693909304601f8101859004850282018501909352828152909450925083918301828280156104e85780601f106104bd576101008083540402835291602001916104e8565b820191906000526020600020905b8154815290600101906020018083116104cb57829003601f168201915b505050505090806001018054600181600116156101000203166002900480601f0160208091040260200160405190810160405280929190818152602001828054600181600116156101000203166002900480156105865780601f1061055b57610100808354040283529160200191610586565b820191906000526020600020905b81548152906001019060200180831161056957829003601f168201915b5050505050905082565b508054600082556002029060005260206000209081019061023891906106ca565b828054600181600116156101000203166002900490600052602060002090601f016020900481019282601f106105f257805160ff191683800117855561061f565b8280016001018555821561061f579182015b8281111561061f578251825591602001919060010190610604565b5061062b9291506106fe565b5090565b8280548282559060005260206000209060020281019282156106c25760005260206000209160020282015b828111156106c257825483908390610688908290849060026000196101006001841615020190911604610718565b50600182018160010190805460018160011615610100020316600290046106b0929190610718565b5050509160020191906002019061065a565b5061062b9291505b6106fb91905b8082111561062b5760006106e4828261078d565b6106f260018301600061078d565b506002016106d0565b90565b6106fb91905b8082111561062b5760008155600101610704565b828054600181600116156101000203166002900490600052602060002090601f016020900481019282601f10610751578054855561061f565b8280016001018555821561061f57600052602060002091601f016020900482015b8281111561061f578254825591600101919060010190610772565b50805460018160011615610100020316600290046000825580601f106107b35750610238565b601f01602090049060005260206000209081019061023891906106fe565b80356107dc81610b25565b92915050565b600082601f8301126107f357600080fd5b813561080661080182610a8c565b610a65565b9150808252602083016020830185838301111561082257600080fd5b61082d838284610ae3565b50505092915050565b80356107dc81610b39565b60006020828403121561085357600080fd5b600061085f84846107d1565b949350505050565b60008060006060848603121561087c57600080fd5b600061088886866107d1565b935050602084013567ffffffffffffffff8111156108a557600080fd5b6108b1868287016107e2565b925050604084013567ffffffffffffffff8111156108ce57600080fd5b6108da868287016107e2565b9150509250925092565b600080604083850312156108f757600080fd5b600061090385856107d1565b925050602061091485828601610836565b9150509250929050565b600061092a83836109e6565b9392505050565b600061093c82610aba565b6109468185610abe565b93508360208202850161095885610ab4565b8060005b858110156109925784840389528151610975858261091e565b945061098083610ab4565b60209a909a019992505060010161095c565b5091979650505050505050565b6109a881610ad2565b82525050565b60006109b982610aba565b6109c38185610abe565b93506109d3818560208601610aef565b6109dc81610b1b565b9093019392505050565b80516040808452600091908401906109fe82826109ae565b91505060208301518482036020860152610a1882826109ae565b95945050505050565b6020808252810161092a8184610931565b602081016107dc828461099f565b60408082528101610a5181856109ae565b9050818103602083015261085f81846109ae565b60405181810167ffffffffffffffff81118282101715610a8457600080fd5b604052919050565b600067ffffffffffffffff821115610aa357600080fd5b506020601f91909101601f19160190565b60200190565b5190565b90815260200190565b60006107dc82610ad7565b151590565b6001600160a01b031690565b82818337506000910152565b60005b83811015610b0a578181015183820152602001610af2565b838111156101c75750506000910152565b601f01601f191690565b610b2e81610ac7565b811461023857600080fd5b610b2e816106fb56fea365627a7a72315820f2a3a603f4640e793e6c9461e38595c1445d97072cd18dcdd1f55fee4f05f7f66c6578706572696d656e74616cf564736f6c63430005100040",
  "source": "// SPDX-License-Identifier: MIT\r\npragma solidity >=0.4.22 <0.9.0;\r\npragma experimental ABIEncoderV2;\r\n\r\ncontract MajorProject {\r\n\r\n    struct mongoData{\r\n        string hashs;\r\n       string mongoid;\r\n    }\r\n    mongoData[] data;\r\n    address publicAddress;\r\n    address[] allPatientAddress;\r\n\r\n    mapping(address=>mongoData[]) public Data;\r\n\r\n    function setPublicAddress(address pa) public {\r\n        if(has(pa)){\r\n            return;\r\n        }\r\n        allPatientAddress.push(pa);\r\n        publicAddress=pa;\r\n        \r\n    }\r\n\r\n    function addNewData(address pa,string memory h,string memory m) public {\r\n        if(!has(pa)){\r\n            return;\r\n        }\r\n        if(Data[pa].length==0){\r\n            delete data;\r\n        }\r\n        data.push(mongoData(h,m));\r\n        Data[pa]=data;\r\n    }\r\n    function getData(address pa) view public returns (mongoData[] memory) {\r\n        return Data[pa];\r\n    }\r\n\r\n    function has(address pa) view public returns(bool){\r\n        for (uint256 index = 0; index < allPatientAddress.length; index++) {\r\n            if(allPatientAddress[index]==pa){\r\n                return false;\r\n            }\r\n        }\r\n        return true;\r\n    }\r\n    \r\n}\r\n",
  "sourcePath": "C:\\Users\\nikhi\\OneDrive\\Documents\\Major-Project\\contracts\\MajorProject.sol",
  "compiler": {
    "name": "solc",
    "version": "0.5.16+commit.9c3226ce.Emscripten.clang"
  },
  "schemaVersion": "3.4.6",
  "updatedAt": "2022-05-05T20:44:36.385Z",
  "networkType": "ethereum",
  "devdoc": {
    "methods": {}
  },
  "userdoc": {
    "methods": {}
  }
}