{
  "contractName": "MajorProject",
  "abi": [
    {
      "constant": true,
      "inputs": [
        {
          "internalType": "address",
          "name": "",
          "type": "address"
        },
        {
          "internalType": "uint256",
          "name": "",
          "type": "uint256"
        }
      ],
      "name": "DiabetesData",
      "outputs": [
        {
          "internalType": "string",
          "name": "recordId",
          "type": "string"
        },
        {
          "internalType": "string",
          "name": "recordHash",
          "type": "string"
        }
      ],
      "payable": false,
      "stateMutability": "view",
      "type": "function"
    },
    {
      "constant": true,
      "inputs": [
        {
          "internalType": "address",
          "name": "",
          "type": "address"
        },
        {
          "internalType": "uint256",
          "name": "",
          "type": "uint256"
        }
      ],
      "name": "HeartData",
      "outputs": [
        {
          "internalType": "string",
          "name": "recordId",
          "type": "string"
        },
        {
          "internalType": "string",
          "name": "recordHash",
          "type": "string"
        }
      ],
      "payable": false,
      "stateMutability": "view",
      "type": "function"
    },
    {
      "constant": false,
      "inputs": [
        {
          "internalType": "address",
          "name": "publicAddress",
          "type": "address"
        },
        {
          "internalType": "string",
          "name": "_recordId",
          "type": "string"
        },
        {
          "internalType": "string",
          "name": "_recordHash",
          "type": "string"
        }
      ],
      "name": "setPatientDiabetesData",
      "outputs": [],
      "payable": false,
      "stateMutability": "nonpayable",
      "type": "function"
    },
    {
      "constant": true,
      "inputs": [
        {
          "internalType": "address",
          "name": "pa",
          "type": "address"
        }
      ],
      "name": "getDiabetesData",
      "outputs": [
        {
          "components": [
            {
              "internalType": "string",
              "name": "recordId",
              "type": "string"
            },
            {
              "internalType": "string",
              "name": "recordHash",
              "type": "string"
            }
          ],
          "internalType": "struct MajorProject.PatientHealthData[]",
          "name": "",
          "type": "tuple[]"
        }
      ],
      "payable": false,
      "stateMutability": "view",
      "type": "function"
    },
    {
      "constant": false,
      "inputs": [
        {
          "internalType": "address",
          "name": "publicAddress",
          "type": "address"
        },
        {
          "internalType": "string",
          "name": "_recordId",
          "type": "string"
        },
        {
          "internalType": "string",
          "name": "_recordHash",
          "type": "string"
        }
      ],
      "name": "setPatientHeartData",
      "outputs": [],
      "payable": false,
      "stateMutability": "nonpayable",
      "type": "function"
    },
    {
      "constant": true,
      "inputs": [
        {
          "internalType": "address",
          "name": "pa",
          "type": "address"
        }
      ],
      "name": "getHeartData",
      "outputs": [
        {
          "components": [
            {
              "internalType": "string",
              "name": "recordId",
              "type": "string"
            },
            {
              "internalType": "string",
              "name": "recordHash",
              "type": "string"
            }
          ],
          "internalType": "struct MajorProject.PatientHealthData[]",
          "name": "",
          "type": "tuple[]"
        }
      ],
      "payable": false,
      "stateMutability": "view",
      "type": "function"
    }
  ],
  "bytecode": "0x608060405234801561001057600080fd5b50610d38806100206000396000f3fe608060405234801561001057600080fd5b50600436106100625760003560e01c80630a72c6bc14610067578063118bbcf61461009157806318fd0683146100b15780634e267a38146100c457806372fc3b3c146100d9578063cd98e331146100ec575b600080fd5b61007a610075366004610abf565b6100ff565b604051610088929190610bfe565b60405180910390f35b6100a461009f366004610a1c565b610256565b6040516100889190610bed565b6100a46100bf366004610a1c565b6103f7565b6100d76100d2366004610a42565b61058d565b005b61007a6100e7366004610abf565b610673565b6100d76100fa366004610a42565b61068c565b6003602052816000526040600020818154811061011857fe5b60009182526020918290206002918202018054604080516001831615610100026000190190921693909304601f8101859004850282018501909352828152909450925083918301828280156101ae5780601f10610183576101008083540402835291602001916101ae565b820191906000526020600020905b81548152906001019060200180831161019157829003601f168201915b505050505090806001018054600181600116156101000203166002900480601f01602080910402602001604051908101604052809291908181526020018280546001816001161561010002031660029004801561024c5780601f106102215761010080835404028352916020019161024c565b820191906000526020600020905b81548152906001019060200180831161022f57829003601f168201915b5050505050905082565b6001600160a01b0381166000908152600360209081526040808320805482518185028101850190935280835260609492939192909184015b828210156103ec5760008481526020908190206040805160028681029093018054600181161561010002600019011693909304601f8101859004909402810160609081018352918101848152909384928491908401828280156103325780601f1061030757610100808354040283529160200191610332565b820191906000526020600020905b81548152906001019060200180831161031557829003601f168201915b50505050508152602001600182018054600181600116156101000203166002900480601f0160208091040260200160405190810160405280929190818152602001828054600181600116156101000203166002900480156103d45780601f106103a9576101008083540402835291602001916103d4565b820191906000526020600020905b8154815290600101906020018083116103b757829003601f168201915b5050505050815250508152602001906001019061028e565b505050509050919050565b6001600160a01b0381166000908152600460209081526040808320805482518185028101850190935280835260609492939192909184015b828210156103ec5760008481526020908190206040805160028681029093018054600181161561010002600019011693909304601f8101859004909402810160609081018352918101848152909384928491908401828280156104d35780601f106104a8576101008083540402835291602001916104d3565b820191906000526020600020905b8154815290600101906020018083116104b657829003601f168201915b50505050508152602001600182018054600181600116156101000203166002900480601f0160208091040260200160405190810160405280929190818152602001828054600181600116156101000203166002900480156105755780601f1061054a57610100808354040283529160200191610575565b820191906000526020600020905b81548152906001019060200180831161055857829003601f168201915b5050505050815250508152602001906001019061042f565b600280546001600160a01b0319166001600160a01b0385169081179091556000908152600460205260409020546105ca576105ca60016000610768565b604080518082019091528281526020808201839052600180548082018083556000929092528351805192949360029092027fb10e2d527612073b26eecdfd717e6a320cf44b4afac2b0732d9fcbe2b7fa0cf6019261062b928492019061078c565b506020828101518051610644926001850192019061078c565b5050506001600160a01b03841660009081526004602052604090206001805461066d935061080a565b50505050565b6004602052816000526040600020818154811061011857fe5b600280546001600160a01b0319166001600160a01b0385169081179091556000908152600360205260409020546106c8576106c8600080610768565b60408051808201909152828152602080820183905260008054600181018083559180528351805192949360029092027f290decd9548b62a8d60345a988386fc84ba6bc95484008f6362f93160ef3e5630192610727928492019061078c565b506020828101518051610740926001850192019061078c565b505050506001600160a01b0383166000908152600360205260408120815461066d929061080a565b508054600082556002029060005260206000209081019061078991906108a5565b50565b828054600181600116156101000203166002900490600052602060002090601f016020900481019282601f106107cd57805160ff19168380011785556107fa565b828001600101855582156107fa579182015b828111156107fa5782518255916020019190600101906107df565b506108069291506108d9565b5090565b82805482825590600052602060002090600202810192821561089d5760005260206000209160020282015b8281111561089d578254839083906108639082908490600260001961010060018416150201909116046108f3565b506001820181600101908054600181600116156101000203166002900461088b9291906108f3565b50505091600201919060020190610835565b506108069291505b6108d691905b808211156108065760006108bf8282610968565b6108cd600183016000610968565b506002016108ab565b90565b6108d691905b8082111561080657600081556001016108df565b828054600181600116156101000203166002900490600052602060002090601f016020900481019282601f1061092c57805485556107fa565b828001600101855582156107fa57600052602060002091601f016020900482015b828111156107fa57825482559160010191906001019061094d565b50805460018160011615610100020316600290046000825580601f1061098e5750610789565b601f01602090049060005260206000209081019061078991906108d9565b80356109b781610cd8565b92915050565b600082601f8301126109ce57600080fd5b81356109e16109dc82610c4a565b610c23565b915080825260208301602083018583830111156109fd57600080fd5b610a08838284610c96565b50505092915050565b80356109b781610cec565b600060208284031215610a2e57600080fd5b6000610a3a84846109ac565b949350505050565b600080600060608486031215610a5757600080fd5b6000610a6386866109ac565b935050602084013567ffffffffffffffff811115610a8057600080fd5b610a8c868287016109bd565b925050604084013567ffffffffffffffff811115610aa957600080fd5b610ab5868287016109bd565b9150509250925092565b60008060408385031215610ad257600080fd5b6000610ade85856109ac565b9250506020610aef85828601610a11565b9150509250929050565b6000610b058383610bb2565b9392505050565b6000610b1782610c78565b610b218185610c7c565b935083602082028501610b3385610c72565b8060005b85811015610b6d5784840389528151610b508582610af9565b9450610b5b83610c72565b60209a909a0199925050600101610b37565b5091979650505050505050565b6000610b8582610c78565b610b8f8185610c7c565b9350610b9f818560208601610ca2565b610ba881610cce565b9093019392505050565b8051604080845260009190840190610bca8282610b7a565b91505060208301518482036020860152610be48282610b7a565b95945050505050565b60208082528101610b058184610b0c565b60408082528101610c0f8185610b7a565b90508181036020830152610a3a8184610b7a565b60405181810167ffffffffffffffff81118282101715610c4257600080fd5b604052919050565b600067ffffffffffffffff821115610c6157600080fd5b506020601f91909101601f19160190565b60200190565b5190565b90815260200190565b60006001600160a01b0382166109b7565b82818337506000910152565b60005b83811015610cbd578181015183820152602001610ca5565b8381111561066d5750506000910152565b601f01601f191690565b610ce181610c85565b811461078957600080fd5b610ce1816108d656fea365627a7a723158207aef41ff4871f541154d3b3c48cedbbeb844d58c4a6e4cdebcb835e28ddebe2f6c6578706572696d656e74616cf564736f6c63430005100040",
  "source": "// SPDX-License-Identifier: MIT\r\npragma solidity >=0.4.22 <0.9.0;\r\npragma experimental ABIEncoderV2;\r\n\r\ncontract MajorProject {\r\n        struct PatientHealthData{\r\n        string recordId;\r\n        string recordHash;\r\n    }\r\n    PatientHealthData[] DiabetesRecords;\r\n    PatientHealthData[] HeartRecords;\r\n\r\n    address patientPublicAddress;\r\n\r\n    mapping(address => PatientHealthData[]) public DiabetesData;\r\n    mapping(address => PatientHealthData[]) public HeartData;\r\n\r\n    function setPatientDiabetesData(\r\n        address publicAddress,\r\n        string memory _recordId,\r\n        string memory _recordHash\r\n    ) public {\r\n        patientPublicAddress = publicAddress;\r\n        if (DiabetesData[publicAddress].length == 0) {\r\n            delete DiabetesRecords;\r\n        }\r\n        DiabetesRecords.push(PatientHealthData(_recordId, _recordHash));\r\n        DiabetesData[publicAddress] = DiabetesRecords;\r\n    }\r\n\r\n    function getDiabetesData(address pa)\r\n        public\r\n        view\r\n        returns (PatientHealthData[] memory)\r\n    {\r\n        return DiabetesData[pa];\r\n    }\r\n\r\n    function setPatientHeartData(\r\n        address publicAddress,\r\n        string memory _recordId,\r\n        string memory _recordHash\r\n    ) public {\r\n        patientPublicAddress = publicAddress;\r\n        if (HeartData[publicAddress].length == 0) {\r\n            delete HeartRecords;\r\n        }\r\n        HeartRecords.push(PatientHealthData(_recordId, _recordHash));\r\n        HeartData[publicAddress] = HeartRecords;\r\n    }\r\n\r\n    function getHeartData(address pa)\r\n        public\r\n        view\r\n        returns (PatientHealthData[] memory)\r\n    {\r\n        return HeartData[pa];\r\n    }\r\n    \r\n}\r\n",
  "sourcePath": "C:\\Users\\nikhi\\OneDrive\\Documents\\Major-Project\\contracts\\MajorProject.sol",
  "compiler": {
    "name": "solc",
    "version": "0.5.16+commit.9c3226ce.Emscripten.clang"
  },
  "schemaVersion": "3.4.6",
  "updatedAt": "2022-05-11T18:54:36.509Z",
  "networkType": "ethereum",
  "devdoc": {
    "methods": {}
  },
  "userdoc": {
    "methods": {}
  }
}